{
  "contractName": "dConfess",
  "abi": [
    {
      "inputs": [],
      "payable": false,
      "stateMutability": "nonpayable",
      "type": "constructor"
    },
    {
      "constant": false,
      "inputs": [
        {
          "internalType": "string",
          "name": "_hash",
          "type": "string"
        }
      ],
      "name": "set",
      "outputs": [],
      "payable": false,
      "stateMutability": "nonpayable",
      "type": "function"
    },
    {
      "constant": true,
      "inputs": [],
      "name": "getAddress",
      "outputs": [
        {
          "internalType": "address",
          "name": "",
          "type": "address"
        }
      ],
      "payable": false,
      "stateMutability": "view",
      "type": "function"
    },
    {
      "constant": true,
      "inputs": [
        {
          "internalType": "address",
          "name": "_address",
          "type": "address"
        }
      ],
      "name": "getAddressCount",
      "outputs": [
        {
          "internalType": "uint256",
          "name": "",
          "type": "uint256"
        }
      ],
      "payable": false,
      "stateMutability": "view",
      "type": "function"
    },
    {
      "constant": true,
      "inputs": [
        {
          "internalType": "address",
          "name": "_address",
          "type": "address"
        },
        {
          "internalType": "uint256",
          "name": "i",
          "type": "uint256"
        }
      ],
      "name": "getConfession",
      "outputs": [
        {
          "internalType": "string",
          "name": "",
          "type": "string"
        }
      ],
      "payable": false,
      "stateMutability": "view",
      "type": "function"
    }
  ],
  "bytecode": "0x608060405234801561001057600080fd5b5061077a806100206000396000f3fe608060405234801561001057600080fd5b506004361061004c5760003560e01c806338cc4831146100515780634ed3885e1461009b5780639a4e6698146101565780639ef4d700146101ae575b600080fd5b610059610275565b604051808273ffffffffffffffffffffffffffffffffffffffff1673ffffffffffffffffffffffffffffffffffffffff16815260200191505060405180910390f35b610154600480360360208110156100b157600080fd5b81019080803590602001906401000000008111156100ce57600080fd5b8201836020820111156100e057600080fd5b8035906020019184600183028401116401000000008311171561010257600080fd5b91908080601f016020809104026020016040519081016040528093929190818152602001838380828437600081840152601f19601f82011690508083019250505050505050919291929050505061027d565b005b6101986004803603602081101561016c57600080fd5b81019080803573ffffffffffffffffffffffffffffffffffffffff1690602001909291905050506104c6565b6040518082815260200191505060405180910390f35b6101fa600480360360408110156101c457600080fd5b81019080803573ffffffffffffffffffffffffffffffffffffffff169060200190929190803590602001909291905050506105a9565b6040518080602001828103825283818151815260200191508051906020019080838360005b8381101561023a57808201518184015260208101905061021f565b50505050905090810190601f1680156102675780820380516001836020036101000a031916815260200191505b509250505060405180910390f35b600033905090565b600080905060008090505b600080549050811015610316573373ffffffffffffffffffffffffffffffffffffffff16600082815481106102b957fe5b9060005260206000200160009054906101000a900473ffffffffffffffffffffffffffffffffffffffff1673ffffffffffffffffffffffffffffffffffffffff1614156103095760019150610316565b8080600101915050610288565b50806103835760003390806001815401808255809150509060018203906000526020600020016000909192909190916101000a81548173ffffffffffffffffffffffffffffffffffffffff021916908373ffffffffffffffffffffffffffffffffffffffff160217905550505b60008090505b6000805490508110156104c1573373ffffffffffffffffffffffffffffffffffffffff16600082815481106103ba57fe5b9060005260206000200160009054906101000a900473ffffffffffffffffffffffffffffffffffffffff1673ffffffffffffffffffffffffffffffffffffffff1614156104b4576001600080838154811061041157fe5b9060005260206000200160009054906101000a900473ffffffffffffffffffffffffffffffffffffffff1673ffffffffffffffffffffffffffffffffffffffff1673ffffffffffffffffffffffffffffffffffffffff1681526020019081526020016000208390806001815401808255809150509060018203906000526020600020016000909192909190915090805190602001906104b19291906106a0565b50505b8080600101915050610389565b505050565b600080600090505b60008054905081101561059e578273ffffffffffffffffffffffffffffffffffffffff16600082815481106104ff57fe5b9060005260206000200160009054906101000a900473ffffffffffffffffffffffffffffffffffffffff1673ffffffffffffffffffffffffffffffffffffffff16141561059157600160008473ffffffffffffffffffffffffffffffffffffffff1673ffffffffffffffffffffffffffffffffffffffff168152602001908152602001600020805490509150506105a4565b80806001019150506104ce565b50600090505b919050565b6060600160008473ffffffffffffffffffffffffffffffffffffffff1673ffffffffffffffffffffffffffffffffffffffff16815260200190815260200160002082815481106105f557fe5b906000526020600020018054600181600116156101000203166002900480601f0160208091040260200160405190810160405280929190818152602001828054600181600116156101000203166002900480156106935780601f1061066857610100808354040283529160200191610693565b820191906000526020600020905b81548152906001019060200180831161067657829003601f168201915b5050505050905092915050565b828054600181600116156101000203166002900490600052602060002090601f016020900481019282601f106106e157805160ff191683800117855561070f565b8280016001018555821561070f579182015b8281111561070e5782518255916020019190600101906106f3565b5b50905061071c9190610720565b5090565b61074291905b8082111561073e576000816000905550600101610726565b5090565b9056fea265627a7a72315820e1a85685b7b4d5fa27decb97864f43246fe5f7fb1b306ffd732bab8b647cf98764736f6c63430005100032",
  "source": "pragma solidity >=0.5.0;\n \ncontract dConfess \n{\n \n    constructor() public {}\n    address[] private confessors;\n    mapping (address => string[] ) private confessions;\n     \n     \n    // event confessionRecorded(address indexed key,bytes32 _digest,uint8 _hashFunction,uint8 _size);\n     \n    function set(string memory _hash) public \n    {\n        bool oldconfessor = false;\n        for(uint i = 0;i < confessors.length;i++)\n        {\n            if(confessors[i]==msg.sender)\n            {\n                oldconfessor = true;\n                break;\n            }\n        }\n        if(!oldconfessor)\n        {\n            confessors.push(msg.sender);\n        }\n        \n        for(uint i = 0;i < confessors.length;i++)\n        {\n            if(confessors[i]==msg.sender)\n            {\n                confessions[confessors[i]].push(_hash);\n            }\n        }\n    }\n    \n    function getAddress() public view returns(address )\n    {\n       return msg.sender;\n    }\n    function getAddressCount(address _address) public view returns(uint)\n    {\n        for(uint i=0;i<confessors.length;i++)\n        {\n            if(confessors[i]==_address)\n            {\n                return confessions[_address].length;\n            }\n        }\n        return 0;\n    }\n    function getConfession(address _address,uint i) public view returns(string memory)\n    {\n       return confessions[_address][i];\n    }\n}",
  "sourcePath": "/home/rishabh/Desktop/mydapp/contracts/dConfess.sol",
  "compiler": {
    "name": "solc",
    "version": "0.5.16+commit.9c3226ce.Emscripten.clang"
  },
  "schemaVersion": "3.0.23",
  "updatedAt": "2020-02-10T14:18:19.148Z",
  "networkType": "ethereum",
  "devdoc": {
    "methods": {}
  },
  "userdoc": {
    "methods": {}
  }
}